{
    "contractName": "ZombieOwnership",
    "abi": [
        {
            "constant": false,
            "inputs": [
                {
                    "name": "_to",
                    "type": "address"
                },
                {
                    "name": "_tokenId",
                    "type": "uint256"
                }
            ],
            "name": "approve",
            "outputs": [],
            "payable": false,
            "stateMutability": "nonpayable",
            "type": "function"
        },
        {
            "constant": false,
            "inputs": [
                {
                    "name": "_zombieId",
                    "type": "uint256"
                }
            ],
            "name": "levelUp",
            "outputs": [],
            "payable": true,
            "stateMutability": "payable",
            "type": "function"
        },
        {
            "constant": false,
            "inputs": [
                {
                    "name": "_zombieId",
                    "type": "uint256"
                },
                {
                    "name": "_kittyId",
                    "type": "uint256"
                }
            ],
            "name": "feedOnKitty",
            "outputs": [],
            "payable": false,
            "stateMutability": "nonpayable",
            "type": "function"
        },
        {
            "constant": true,
            "inputs": [
                {
                    "name": "",
                    "type": "uint256"
                }
            ],
            "name": "zombies",
            "outputs": [
                {
                    "name": "name",
                    "type": "string"
                },
                {
                    "name": "dna",
                    "type": "uint256"
                },
                {
                    "name": "level",
                    "type": "uint32"
                },
                {
                    "name": "readyTime",
                    "type": "uint32"
                },
                {
                    "name": "winCount",
                    "type": "uint16"
                },
                {
                    "name": "lossCount",
                    "type": "uint16"
                }
            ],
            "payable": false,
            "stateMutability": "view",
            "type": "function"
        },
        {
            "constant": false,
            "inputs": [],
            "name": "withdraw",
            "outputs": [],
            "payable": false,
            "stateMutability": "nonpayable",
            "type": "function"
        },
        {
            "constant": true,
            "inputs": [
                {
                    "name": "_owner",
                    "type": "address"
                }
            ],
            "name": "getZombiesByOwner",
            "outputs": [
                {
                    "name": "",
                    "type": "uint256[]"
                }
            ],
            "payable": false,
            "stateMutability": "view",
            "type": "function"
        },
        {
            "constant": true,
            "inputs": [
                {
                    "name": "",
                    "type": "uint256"
                }
            ],
            "name": "zombieToOwner",
            "outputs": [
                {
                    "name": "",
                    "type": "address"
                }
            ],
            "payable": false,
            "stateMutability": "view",
            "type": "function"
        },
        {
            "constant": false,
            "inputs": [
                {
                    "name": "_address",
                    "type": "address"
                }
            ],
            "name": "setKittyContractAddress",
            "outputs": [],
            "payable": false,
            "stateMutability": "nonpayable",
            "type": "function"
        },
        {
            "constant": false,
            "inputs": [
                {
                    "name": "_zombieId",
                    "type": "uint256"
                },
                {
                    "name": "_newDna",
                    "type": "uint256"
                }
            ],
            "name": "changeDna",
            "outputs": [],
            "payable": false,
            "stateMutability": "nonpayable",
            "type": "function"
        },
        {
            "constant": true,
            "inputs": [
                {
                    "name": "_tokenId",
                    "type": "uint256"
                }
            ],
            "name": "ownerOf",
            "outputs": [
                {
                    "name": "_owner",
                    "type": "address"
                }
            ],
            "payable": false,
            "stateMutability": "view",
            "type": "function"
        },
        {
            "constant": true,
            "inputs": [
                {
                    "name": "_owner",
                    "type": "address"
                }
            ],
            "name": "balanceOf",
            "outputs": [
                {
                    "name": "_balance",
                    "type": "uint256"
                }
            ],
            "payable": false,
            "stateMutability": "view",
            "type": "function"
        },
        {
            "constant": false,
            "inputs": [
                {
                    "name": "_name",
                    "type": "string"
                }
            ],
            "name": "createRandomZombie",
            "outputs": [],
            "payable": false,
            "stateMutability": "nonpayable",
            "type": "function"
        },
        {
            "constant": true,
            "inputs": [],
            "name": "owner",
            "outputs": [
                {
                    "name": "",
                    "type": "address"
                }
            ],
            "payable": false,
            "stateMutability": "view",
            "type": "function"
        },
        {
            "constant": false,
            "inputs": [
                {
                    "name": "_to",
                    "type": "address"
                },
                {
                    "name": "_tokenId",
                    "type": "uint256"
                }
            ],
            "name": "transfer",
            "outputs": [],
            "payable": false,
            "stateMutability": "nonpayable",
            "type": "function"
        },
        {
            "constant": false,
            "inputs": [
                {
                    "name": "_tokenId",
                    "type": "uint256"
                }
            ],
            "name": "takeOwnership",
            "outputs": [],
            "payable": false,
            "stateMutability": "nonpayable",
            "type": "function"
        },
        {
            "constant": false,
            "inputs": [
                {
                    "name": "_zombieId",
                    "type": "uint256"
                },
                {
                    "name": "_newName",
                    "type": "string"
                }
            ],
            "name": "changeName",
            "outputs": [],
            "payable": false,
            "stateMutability": "nonpayable",
            "type": "function"
        },
        {
            "constant": false,
            "inputs": [
                {
                    "name": "_fee",
                    "type": "uint256"
                }
            ],
            "name": "setLevelUpFee",
            "outputs": [],
            "payable": false,
            "stateMutability": "nonpayable",
            "type": "function"
        },
        {
            "constant": false,
            "inputs": [
                {
                    "name": "_zombieId",
                    "type": "uint256"
                },
                {
                    "name": "_targetId",
                    "type": "uint256"
                }
            ],
            "name": "attack",
            "outputs": [],
            "payable": false,
            "stateMutability": "nonpayable",
            "type": "function"
        },
        {
            "constant": false,
            "inputs": [
                {
                    "name": "newOwner",
                    "type": "address"
                }
            ],
            "name": "transferOwnership",
            "outputs": [],
            "payable": false,
            "stateMutability": "nonpayable",
            "type": "function"
        },
        {
            "anonymous": false,
            "inputs": [
                {
                    "indexed": true,
                    "name": "_from",
                    "type": "address"
                },
                {
                    "indexed": true,
                    "name": "_to",
                    "type": "address"
                },
                {
                    "indexed": false,
                    "name": "_tokenId",
                    "type": "uint256"
                }
            ],
            "name": "Transfer",
            "type": "event"
        },
        {
            "anonymous": false,
            "inputs": [
                {
                    "indexed": true,
                    "name": "_owner",
                    "type": "address"
                },
                {
                    "indexed": true,
                    "name": "_approved",
                    "type": "address"
                },
                {
                    "indexed": false,
                    "name": "_tokenId",
                    "type": "uint256"
                }
            ],
            "name": "Approval",
            "type": "event"
        },
        {
            "anonymous": false,
            "inputs": [
                {
                    "indexed": false,
                    "name": "zombieId",
                    "type": "uint256"
                },
                {
                    "indexed": false,
                    "name": "name",
                    "type": "string"
                },
                {
                    "indexed": false,
                    "name": "dna",
                    "type": "uint256"
                }
            ],
            "name": "NewZombie",
            "type": "event"
        },
        {
            "anonymous": false,
            "inputs": [
                {
                    "indexed": true,
                    "name": "previousOwner",
                    "type": "address"
                },
                {
                    "indexed": true,
                    "name": "newOwner",
                    "type": "address"
                }
            ],
            "name": "OwnershipTransferred",
            "type": "event"
        }
    ],
    "bytecode": "60806040526010600155662386f26fc100006002556201518060035566038d7ea4c68000600855600060098190556046600a558054600160a060020a031916331790556113f9806100516000396000f3006080604052600436106101065763ffffffff7c0100000000000000000000000000000000000000000000000000000000600035041663095ea7b3811461010b5780630ce90ec21461013157806317a7f4cc1461013c5780632052465e146101575780633ccfd60b1461021b5780634412e10414610230578063528b7b8f146102a15780635f4623f1146102d55780635faf2880146102f65780636352211e1461031157806370a08231146103295780637bff0a011461035c5780638da5cb5b146103b5578063a9059cbb146103ca578063b2e6ceeb146103ee578063c39cbef114610406578063ccf670f81461042a578063e1fa763814610442578063f2fde38b1461045d575b600080fd5b34801561011757600080fd5b5061012f600160a060020a036004351660243561047e565b005b61012f600435610517565b34801561014857600080fd5b5061012f600435602435610563565b34801561016357600080fd5b5061016f600435610644565b60408051602080820188905263ffffffff80881693830193909352918516606082015261ffff8085166080830152831660a082015260c080825288519082015287519091829160e08301918a019080838360005b838110156101db5781810151838201526020016101c3565b50505050905090810190601f1680156102085780820380516001836020036101000a031916815260200191505b5097505050505050505060405180910390f35b34801561022757600080fd5b5061012f610735565b34801561023c57600080fd5b50610251600160a060020a036004351661078a565b60408051602080825283518183015283519192839290830191858101910280838360005b8381101561028d578181015183820152602001610275565b505050509050019250505060405180910390f35b3480156102ad57600080fd5b506102b9600435610848565b60408051600160a060020a039092168252519081900360200190f35b3480156102e157600080fd5b5061012f600160a060020a0360043516610863565b34801561030257600080fd5b5061012f6004356024356108a9565b34801561031d57600080fd5b506102b9600435610932565b34801561033557600080fd5b5061034a600160a060020a036004351661094d565b60408051918252519081900360200190f35b34801561036857600080fd5b506040805160206004803580820135601f810184900484028501840190955284845261012f9436949293602493928401919081908401838280828437509497506109689650505050505050565b3480156103c157600080fd5b506102b96109a1565b3480156103d657600080fd5b5061012f600160a060020a03600435166024356109b0565b3480156103fa57600080fd5b5061012f6004356109e0565b34801561041257600080fd5b5061012f600480359060248035908101910135610a19565b34801561043657600080fd5b5061012f600435610aaa565b34801561044e57600080fd5b5061012f600435602435610ac6565b34801561046957600080fd5b5061012f600160a060020a0360043516610c8c565b6000818152600560205260409020548190600160a060020a031633146104a357600080fd5b6000828152600b6020908152604091829020805473ffffffffffffffffffffffffffffffffffffffff1916600160a060020a03871690811790915582518581529251909233927f8c5be1e5ebec7d5bd14f71427d1e84f3dd0314c0f7b2291e5b200ac8c7c3b92592918290030190a3505050565b600854341461052557600080fd5b600480548290811061053357fe5b60009182526020909120600260039092020101805463ffffffff8082166001011663ffffffff1990911617905550565b600754604080517fe98b7f4d000000000000000000000000000000000000000000000000000000008152600481018490529051600092600160a060020a03169163e98b7f4d9160248083019261014092919082900301818787803b1580156105ca57600080fd5b505af11580156105de573d6000803e3d6000fd5b505050506040513d6101408110156105f557600080fd5b50610120015160408051808201909152600581527f6b69747479000000000000000000000000000000000000000000000000000000602082015290915061063f9084908390610d20565b505050565b600480548290811061065257fe5b60009182526020918290206003919091020180546040805160026001841615610100026000190190931692909204601f8101859004850283018501909152808252919350918391908301828280156106eb5780601f106106c0576101008083540402835291602001916106eb565b820191906000526020600020905b8154815290600101906020018083116106ce57829003601f168201915b505050600184015460029094015492939263ffffffff8082169350640100000000820416915061ffff6801000000000000000082048116916a010000000000000000000090041686565b600054600160a060020a0316331461074c57600080fd5b60008054604051600160a060020a0390911691303180156108fc02929091818181858888f19350505050158015610787573d6000803e3d6000fd5b50565b6060806000806006600086600160a060020a0316600160a060020a03168152602001908152602001600020546040519080825280602002602001820160405280156107df578160200160208202803883390190505b50925060009150600090505b60045481101561083f57600081815260056020526040902054600160a060020a03868116911614156108375780838381518110151561082657fe5b602090810290910101526001909101905b6001016107eb565b50909392505050565b600560205260009081526040902054600160a060020a031681565b600054600160a060020a0316331461087a57600080fd5b6007805473ffffffffffffffffffffffffffffffffffffffff1916600160a060020a0392909216919091179055565b601482816004828154811015156108bc57fe5b600091825260209091206002600390920201015463ffffffff1610156108e157600080fd5b6000848152600560205260409020548490600160a060020a0316331461090657600080fd5b8360048681548110151561091657fe5b9060005260206000209060030201600101819055505050505050565b600090815260056020526040902054600160a060020a031690565b600160a060020a031660009081526006602052604090205490565b336000908152600660205260408120541561098257600080fd5b61098b82610e8f565b905060648106900361099d8282610f0a565b5050565b600054600160a060020a031681565b6000818152600560205260409020548190600160a060020a031633146109d557600080fd5b61063f338484611129565b6000818152600b6020526040812054600160a060020a03163314610a0357600080fd5b610a0c82610932565b905061099d813384611129565b60028381600482815481101515610a2c57fe5b600091825260209091206002600390920201015463ffffffff161015610a5157600080fd5b6000858152600560205260409020548590600160a060020a03163314610a7657600080fd5b8484600488815481101515610a8757fe5b60009182526020909120610aa193600390920201916112c4565b50505050505050565b600054600160a060020a03163314610ac157600080fd5b600855565b600082815260056020526040812054819081908590600160a060020a03163314610aef57600080fd5b6004805487908110610afd57fe5b90600052602060002090600302019350600485815481101515610b1c57fe5b90600052602060002090600302019250610b36606461120b565b600a549092508211610c0f576002808501805463ffffffff600161ffff680100000000000000008085048216830182160269ffff00000000000000001990941693909317828116820190921663ffffffff199092169190911790925591850180546a0100000000000000000000808204851684019094169093026bffff00000000000000000000199093169290921790915583015460408051808201909152600681527f7a6f6d62696500000000000000000000000000000000000000000000000000006020820152610c0a918891610d20565b610c84565b60028085018054600161ffff6a0100000000000000000000808404821683018216026bffff000000000000000000001990931692909217909255918501805468010000000000000000808204851690930190931690910269ffff000000000000000019909216919091179055610c8484611259565b505050505050565b600054600160a060020a03163314610ca357600080fd5b600160a060020a0381161515610cb857600080fd5b60008054604051600160a060020a03808516939216917f8be0079c531659141344cd1fd0a4f28419497f9722a3daafe3b4186f6b6457e091a36000805473ffffffffffffffffffffffffffffffffffffffff1916600160a060020a0392909216919091179055565b60008381526005602052604081205481908590600160a060020a03163314610d4757600080fd5b6004805487908110610d5557fe5b90600052602060002090600302019250610d6e83611283565b1515610d7957600080fd5b60025485811515610d8657fe5b069450600285846001015401811515610d9b57fe5b604080517f6b697474790000000000000000000000000000000000000000000000000000008152905190819003600501812087519390920494509091869190819060208401908083835b60208310610e045780518252601f199092019160209182019101610de5565b6001836020036101000a0380198251168184511680821785525050505050509050019150506040518091039020600019161415610e475760648206820360630191505b610e866040805190810160405280600681526020017f4e6f4e616d65000000000000000000000000000000000000000000000000000081525083610f0a565b610c8483611259565b600080826040518082805190602001908083835b60208310610ec25780518252601f199092019160209182019101610ea3565b6001836020036101000a038019825116818451168082178552505050505050905001915050604051809103902060019004905060025481811515610f0257fe5b069392505050565b6040805160c0810182528381526020808201849052600192820183905260038054420163ffffffff16606084015260006080840181905260a08401819052600480548087018083559183528551805193979692959294919091027f8a35acfbc15ff81a39ae7d344fd709f28e8600b4aa8c65c6b64bfe7fe36bd19b0192610f949284920190611342565b50602082810151600183810191909155604080850151600290940180546060808801516080808a015160a0909a015163ffffffff1990941663ffffffff998a161767ffffffff00000000191664010000000099909216989098021769ffff000000000000000019166801000000000000000061ffff998a1602176bffff0000000000000000000019166a010000000000000000000098909216979097021790559590940360008181526005835286812080543373ffffffffffffffffffffffffffffffffffffffff1990911681179091558152600683528681208054909601909555855181815295860188905285820184815289519487019490945288519096507f88f026aacbbecc90c18411df4b1185fd8d9be2470f1962f192bf84a27d0704b79587958a958a959294909392850192908701918190849084905b838110156110e85781810151838201526020016110d0565b50505050905090810190601f1680156111155780820380516001836020036101000a031916815260200191505b5094505050505060405180910390a1505050565b600160a060020a03821660009081526006602052604090205461115390600163ffffffff61129c16565b600160a060020a03831660009081526006602052604080822092909255338152205461118690600163ffffffff6112b216565b336000908152600660209081526040808320939093558382526005815290829020805473ffffffffffffffffffffffffffffffffffffffff1916600160a060020a03868116918217909255835185815293519093918716927fddf252ad1be2c89b69c2b068fc378daa952ba7f163c4a11628f55a4df523b3ef928290030190a3505050565b6009805460010190819055604080514281526c0100000000000000000000000033026020820152603481019290925251908190036054019020600090829081151561125257fe5b0692915050565b60035442018160020160046101000a81548163ffffffff021916908363ffffffff16021790555050565b600201544264010000000090910463ffffffff16111590565b6000828201838110156112ab57fe5b9392505050565b6000828211156112be57fe5b50900390565b828054600181600116156101000203166002900490600052602060002090601f016020900481019282601f106113055782800160ff19823516178555611332565b82800160010185558215611332579182015b82811115611332578235825591602001919060010190611317565b5061133e9291506113b0565b5090565b828054600181600116156101000203166002900490600052602060002090601f016020900481019282601f1061138357805160ff1916838001178555611332565b82800160010185558215611332579182015b82811115611332578251825591602001919060010190611395565b6113ca91905b8082111561133e57600081556001016113b6565b905600a165627a7a72305820efad0d93c34c1bc93811149535b5df58a8d44dc5a2fd34cba137c8fcc671cacb0029",
    "sourcePath": "d:/program data/zombies/zombieownership.sol",
    "compiler": {
        "name": "solc",
        "version": "0.4.24+commit.e67f0147"
    },
    "functionHashes": {
        "approve(address,uint256)": "095ea7b3",
        "attack(uint256,uint256)": "e1fa7638",
        "balanceOf(address)": "70a08231",
        "changeDna(uint256,uint256)": "5faf2880",
        "changeName(uint256,string)": "c39cbef1",
        "createRandomZombie(string)": "7bff0a01",
        "feedOnKitty(uint256,uint256)": "17a7f4cc",
        "getZombiesByOwner(address)": "4412e104",
        "levelUp(uint256)": "0ce90ec2",
        "owner()": "8da5cb5b",
        "ownerOf(uint256)": "6352211e",
        "setKittyContractAddress(address)": "5f4623f1",
        "setLevelUpFee(uint256)": "ccf670f8",
        "takeOwnership(uint256)": "b2e6ceeb",
        "transfer(address,uint256)": "a9059cbb",
        "transferOwnership(address)": "f2fde38b",
        "withdraw()": "3ccfd60b",
        "zombieToOwner(uint256)": "528b7b8f",
        "zombies(uint256)": "2052465e"
    },
    "gasEstimates": {
        "creation": {
            "codeDepositCost": "1022600",
            "executionCost": "126368",
            "totalCost": "1148968"
        },
        "external": {
            "approve(address,uint256)": "22796",
            "attack(uint256,uint256)": "infinite",
            "balanceOf(address)": "826",
            "changeDna(uint256,uint256)": "21564",
            "changeName(uint256,string)": "infinite",
            "createRandomZombie(string)": "infinite",
            "feedOnKitty(uint256,uint256)": "infinite",
            "getZombiesByOwner(address)": "infinite",
            "levelUp(uint256)": "20915",
            "owner()": "801",
            "ownerOf(uint256)": "807",
            "setKittyContractAddress(address)": "20976",
            "setLevelUpFee(uint256)": "20788",
            "takeOwnership(uint256)": "infinite",
            "transfer(address,uint256)": "infinite",
            "transferOwnership(address)": "23127",
            "withdraw()": "infinite",
            "zombieToOwner(uint256)": "741",
            "zombies(uint256)": "infinite"
        },
        "internal": {
            "_transfer(address,address,uint256)": "infinite"
        }
    }
}