{
    "contractName": "ZombieAttack",
    "abi": [
        {
            "constant": false,
            "inputs": [
                {
                    "name": "_zombieId",
                    "type": "uint256"
                }
            ],
            "name": "levelUp",
            "outputs": [],
            "payable": true,
            "stateMutability": "payable",
            "type": "function"
        },
        {
            "constant": false,
            "inputs": [
                {
                    "name": "_zombieId",
                    "type": "uint256"
                },
                {
                    "name": "_kittyId",
                    "type": "uint256"
                }
            ],
            "name": "feedOnKitty",
            "outputs": [],
            "payable": false,
            "stateMutability": "nonpayable",
            "type": "function"
        },
        {
            "constant": true,
            "inputs": [
                {
                    "name": "",
                    "type": "uint256"
                }
            ],
            "name": "zombies",
            "outputs": [
                {
                    "name": "name",
                    "type": "string"
                },
                {
                    "name": "dna",
                    "type": "uint256"
                },
                {
                    "name": "level",
                    "type": "uint32"
                },
                {
                    "name": "readyTime",
                    "type": "uint32"
                },
                {
                    "name": "winCount",
                    "type": "uint16"
                },
                {
                    "name": "lossCount",
                    "type": "uint16"
                }
            ],
            "payable": false,
            "stateMutability": "view",
            "type": "function"
        },
        {
            "constant": false,
            "inputs": [],
            "name": "withdraw",
            "outputs": [],
            "payable": false,
            "stateMutability": "nonpayable",
            "type": "function"
        },
        {
            "constant": true,
            "inputs": [
                {
                    "name": "_owner",
                    "type": "address"
                }
            ],
            "name": "getZombiesByOwner",
            "outputs": [
                {
                    "name": "",
                    "type": "uint256[]"
                }
            ],
            "payable": false,
            "stateMutability": "view",
            "type": "function"
        },
        {
            "constant": true,
            "inputs": [
                {
                    "name": "",
                    "type": "uint256"
                }
            ],
            "name": "zombieToOwner",
            "outputs": [
                {
                    "name": "",
                    "type": "address"
                }
            ],
            "payable": false,
            "stateMutability": "view",
            "type": "function"
        },
        {
            "constant": false,
            "inputs": [
                {
                    "name": "_address",
                    "type": "address"
                }
            ],
            "name": "setKittyContractAddress",
            "outputs": [],
            "payable": false,
            "stateMutability": "nonpayable",
            "type": "function"
        },
        {
            "constant": false,
            "inputs": [
                {
                    "name": "_zombieId",
                    "type": "uint256"
                },
                {
                    "name": "_newDna",
                    "type": "uint256"
                }
            ],
            "name": "changeDna",
            "outputs": [],
            "payable": false,
            "stateMutability": "nonpayable",
            "type": "function"
        },
        {
            "constant": false,
            "inputs": [
                {
                    "name": "_name",
                    "type": "string"
                }
            ],
            "name": "createRandomZombie",
            "outputs": [],
            "payable": false,
            "stateMutability": "nonpayable",
            "type": "function"
        },
        {
            "constant": true,
            "inputs": [],
            "name": "owner",
            "outputs": [
                {
                    "name": "",
                    "type": "address"
                }
            ],
            "payable": false,
            "stateMutability": "view",
            "type": "function"
        },
        {
            "constant": false,
            "inputs": [
                {
                    "name": "_zombieId",
                    "type": "uint256"
                },
                {
                    "name": "_newName",
                    "type": "string"
                }
            ],
            "name": "changeName",
            "outputs": [],
            "payable": false,
            "stateMutability": "nonpayable",
            "type": "function"
        },
        {
            "constant": false,
            "inputs": [
                {
                    "name": "_fee",
                    "type": "uint256"
                }
            ],
            "name": "setLevelUpFee",
            "outputs": [],
            "payable": false,
            "stateMutability": "nonpayable",
            "type": "function"
        },
        {
            "constant": false,
            "inputs": [
                {
                    "name": "_zombieId",
                    "type": "uint256"
                },
                {
                    "name": "_targetId",
                    "type": "uint256"
                }
            ],
            "name": "attack",
            "outputs": [],
            "payable": false,
            "stateMutability": "nonpayable",
            "type": "function"
        },
        {
            "constant": false,
            "inputs": [
                {
                    "name": "newOwner",
                    "type": "address"
                }
            ],
            "name": "transferOwnership",
            "outputs": [],
            "payable": false,
            "stateMutability": "nonpayable",
            "type": "function"
        },
        {
            "anonymous": false,
            "inputs": [
                {
                    "indexed": false,
                    "name": "zombieId",
                    "type": "uint256"
                },
                {
                    "indexed": false,
                    "name": "name",
                    "type": "string"
                },
                {
                    "indexed": false,
                    "name": "dna",
                    "type": "uint256"
                }
            ],
            "name": "NewZombie",
            "type": "event"
        },
        {
            "anonymous": false,
            "inputs": [
                {
                    "indexed": true,
                    "name": "previousOwner",
                    "type": "address"
                },
                {
                    "indexed": true,
                    "name": "newOwner",
                    "type": "address"
                }
            ],
            "name": "OwnershipTransferred",
            "type": "event"
        }
    ],
    "bytecode": "60806040526010600155662386f26fc100006002556201518060035566038d7ea4c68000600855600060098190556046600a558054600160a060020a031916331790556110d5806100516000396000f3006080604052600436106100cf5763ffffffff7c01000000000000000000000000000000000000000000000000000000006000350416630ce90ec281146100d457806317a7f4cc146100e15780632052465e146100fc5780633ccfd60b146101c05780634412e104146101d5578063528b7b8f146102465780635f4623f11461027a5780635faf28801461029b5780637bff0a01146102b65780638da5cb5b1461030f578063c39cbef114610324578063ccf670f814610348578063e1fa763814610360578063f2fde38b1461037b575b600080fd5b6100df60043561039c565b005b3480156100ed57600080fd5b506100df6004356024356103e8565b34801561010857600080fd5b506101146004356104c9565b60408051602080820188905263ffffffff80881693830193909352918516606082015261ffff8085166080830152831660a082015260c080825288519082015287519091829160e08301918a019080838360005b83811015610180578181015183820152602001610168565b50505050905090810190601f1680156101ad5780820380516001836020036101000a031916815260200191505b5097505050505050505060405180910390f35b3480156101cc57600080fd5b506100df6105ba565b3480156101e157600080fd5b506101f6600160a060020a036004351661060f565b60408051602080825283518183015283519192839290830191858101910280838360005b8381101561023257818101518382015260200161021a565b505050509050019250505060405180910390f35b34801561025257600080fd5b5061025e6004356106cd565b60408051600160a060020a039092168252519081900360200190f35b34801561028657600080fd5b506100df600160a060020a03600435166106e8565b3480156102a757600080fd5b506100df60043560243561072e565b3480156102c257600080fd5b506040805160206004803580820135601f81018490048402850184019095528484526100df9436949293602493928401919081908401838280828437509497506107b79650505050505050565b34801561031b57600080fd5b5061025e6107f0565b34801561033057600080fd5b506100df6004803590602480359081019101356107ff565b34801561035457600080fd5b506100df600435610890565b34801561036c57600080fd5b506100df6004356024356108ac565b34801561038757600080fd5b506100df600160a060020a0360043516610a72565b60085434146103aa57600080fd5b60048054829081106103b857fe5b60009182526020909120600260039092020101805463ffffffff8082166001011663ffffffff1990911617905550565b600754604080517fe98b7f4d000000000000000000000000000000000000000000000000000000008152600481018490529051600092600160a060020a03169163e98b7f4d9160248083019261014092919082900301818787803b15801561044f57600080fd5b505af1158015610463573d6000803e3d6000fd5b505050506040513d61014081101561047a57600080fd5b50610120015160408051808201909152600581527f6b6974747900000000000000000000000000000000000000000000000000000060208201529091506104c49084908390610b06565b505050565b60048054829081106104d757fe5b60009182526020918290206003919091020180546040805160026001841615610100026000190190931692909204601f8101859004850283018501909152808252919350918391908301828280156105705780601f1061054557610100808354040283529160200191610570565b820191906000526020600020905b81548152906001019060200180831161055357829003601f168201915b505050600184015460029094015492939263ffffffff8082169350640100000000820416915061ffff6801000000000000000082048116916a010000000000000000000090041686565b600054600160a060020a031633146105d157600080fd5b60008054604051600160a060020a0390911691303180156108fc02929091818181858888f1935050505015801561060c573d6000803e3d6000fd5b50565b6060806000806006600086600160a060020a0316600160a060020a0316815260200190815260200160002054604051908082528060200260200182016040528015610664578160200160208202803883390190505b50925060009150600090505b6004548110156106c457600081815260056020526040902054600160a060020a03868116911614156106bc578083838151811015156106ab57fe5b602090810290910101526001909101905b600101610670565b50909392505050565b600560205260009081526040902054600160a060020a031681565b600054600160a060020a031633146106ff57600080fd5b6007805473ffffffffffffffffffffffffffffffffffffffff1916600160a060020a0392909216919091179055565b6014828160048281548110151561074157fe5b600091825260209091206002600390920201015463ffffffff16101561076657600080fd5b6000848152600560205260409020548490600160a060020a0316331461078b57600080fd5b8360048681548110151561079b57fe5b9060005260206000209060030201600101819055505050505050565b33600090815260066020526040812054156107d157600080fd5b6107da82610c75565b90506064810690036107ec8282610cf0565b5050565b600054600160a060020a031681565b6002838160048281548110151561081257fe5b600091825260209091206002600390920201015463ffffffff16101561083757600080fd5b6000858152600560205260409020548590600160a060020a0316331461085c57600080fd5b848460048881548110151561086d57fe5b600091825260209091206108879360039092020191610fa0565b50505050505050565b600054600160a060020a031633146108a757600080fd5b600855565b600082815260056020526040812054819081908590600160a060020a031633146108d557600080fd5b60048054879081106108e357fe5b9060005260206000209060030201935060048581548110151561090257fe5b9060005260206000209060030201925061091c6064610f0f565b600a5490925082116109f5576002808501805463ffffffff600161ffff680100000000000000008085048216830182160269ffff00000000000000001990941693909317828116820190921663ffffffff199092169190911790925591850180546a0100000000000000000000808204851684019094169093026bffff00000000000000000000199093169290921790915583015460408051808201909152600681527f7a6f6d626965000000000000000000000000000000000000000000000000000060208201526109f0918891610b06565b610a6a565b60028085018054600161ffff6a0100000000000000000000808404821683018216026bffff000000000000000000001990931692909217909255918501805468010000000000000000808204851690930190931690910269ffff000000000000000019909216919091179055610a6a84610f5d565b505050505050565b600054600160a060020a03163314610a8957600080fd5b600160a060020a0381161515610a9e57600080fd5b60008054604051600160a060020a03808516939216917f8be0079c531659141344cd1fd0a4f28419497f9722a3daafe3b4186f6b6457e091a36000805473ffffffffffffffffffffffffffffffffffffffff1916600160a060020a0392909216919091179055565b60008381526005602052604081205481908590600160a060020a03163314610b2d57600080fd5b6004805487908110610b3b57fe5b90600052602060002090600302019250610b5483610f87565b1515610b5f57600080fd5b60025485811515610b6c57fe5b069450600285846001015401811515610b8157fe5b604080517f6b697474790000000000000000000000000000000000000000000000000000008152905190819003600501812087519390920494509091869190819060208401908083835b60208310610bea5780518252601f199092019160209182019101610bcb565b6001836020036101000a0380198251168184511680821785525050505050509050019150506040518091039020600019161415610c2d5760648206820360630191505b610c6c6040805190810160405280600681526020017f4e6f4e616d65000000000000000000000000000000000000000000000000000081525083610cf0565b610a6a83610f5d565b600080826040518082805190602001908083835b60208310610ca85780518252601f199092019160209182019101610c89565b6001836020036101000a038019825116818451168082178552505050505050905001915050604051809103902060019004905060025481811515610ce857fe5b069392505050565b6040805160c0810182528381526020808201849052600192820183905260038054420163ffffffff16606084015260006080840181905260a08401819052600480548087018083559183528551805193979692959294919091027f8a35acfbc15ff81a39ae7d344fd709f28e8600b4aa8c65c6b64bfe7fe36bd19b0192610d7a928492019061101e565b50602082810151600183810191909155604080850151600290940180546060808801516080808a015160a0909a015163ffffffff1990941663ffffffff998a161767ffffffff00000000191664010000000099909216989098021769ffff000000000000000019166801000000000000000061ffff998a1602176bffff0000000000000000000019166a010000000000000000000098909216979097021790559590940360008181526005835286812080543373ffffffffffffffffffffffffffffffffffffffff1990911681179091558152600683528681208054909601909555855181815295860188905285820184815289519487019490945288519096507f88f026aacbbecc90c18411df4b1185fd8d9be2470f1962f192bf84a27d0704b79587958a958a959294909392850192908701918190849084905b83811015610ece578181015183820152602001610eb6565b50505050905090810190601f168015610efb5780820380516001836020036101000a031916815260200191505b5094505050505060405180910390a1505050565b6009805460010190819055604080514281526c01000000000000000000000000330260208201526034810192909252519081900360540190206000908290811515610f5657fe5b0692915050565b60035442018160020160046101000a81548163ffffffff021916908363ffffffff16021790555050565b600201544264010000000090910463ffffffff16111590565b828054600181600116156101000203166002900490600052602060002090601f016020900481019282601f10610fe15782800160ff1982351617855561100e565b8280016001018555821561100e579182015b8281111561100e578235825591602001919060010190610ff3565b5061101a92915061108c565b5090565b828054600181600116156101000203166002900490600052602060002090601f016020900481019282601f1061105f57805160ff191683800117855561100e565b8280016001018555821561100e579182015b8281111561100e578251825591602001919060010190611071565b6110a691905b8082111561101a5760008155600101611092565b905600a165627a7a72305820846886db448e9d14f732381122493542dee994795524a65dda71a188135012890029",
    "sourcePath": "d:/program data/zombies/zombieattack.sol",
    "compiler": {
        "name": "solc",
        "version": "0.4.24+commit.e67f0147"
    },
    "functionHashes": {
        "attack(uint256,uint256)": "e1fa7638",
        "changeDna(uint256,uint256)": "5faf2880",
        "changeName(uint256,string)": "c39cbef1",
        "createRandomZombie(string)": "7bff0a01",
        "feedOnKitty(uint256,uint256)": "17a7f4cc",
        "getZombiesByOwner(address)": "4412e104",
        "levelUp(uint256)": "0ce90ec2",
        "owner()": "8da5cb5b",
        "setKittyContractAddress(address)": "5f4623f1",
        "setLevelUpFee(uint256)": "ccf670f8",
        "transferOwnership(address)": "f2fde38b",
        "withdraw()": "3ccfd60b",
        "zombieToOwner(uint256)": "528b7b8f",
        "zombies(uint256)": "2052465e"
    },
    "gasEstimates": {
        "creation": {
            "codeDepositCost": "861800",
            "executionCost": "126203",
            "totalCost": "988003"
        },
        "external": {
            "attack(uint256,uint256)": "infinite",
            "changeDna(uint256,uint256)": "21542",
            "changeName(uint256,string)": "infinite",
            "createRandomZombie(string)": "infinite",
            "feedOnKitty(uint256,uint256)": "infinite",
            "getZombiesByOwner(address)": "infinite",
            "levelUp(uint256)": "20893",
            "owner()": "735",
            "setKittyContractAddress(address)": "20954",
            "setLevelUpFee(uint256)": "20678",
            "transferOwnership(address)": "23017",
            "withdraw()": "infinite",
            "zombieToOwner(uint256)": "719",
            "zombies(uint256)": "infinite"
        },
        "internal": {
            "randMod(uint256)": "infinite"
        }
    }
}