{
    "contractName": "ZombieFactory",
    "abi": [
        {
            "constant": true,
            "inputs": [
                {
                    "name": "",
                    "type": "uint256"
                }
            ],
            "name": "zombies",
            "outputs": [
                {
                    "name": "name",
                    "type": "string"
                },
                {
                    "name": "dna",
                    "type": "uint256"
                },
                {
                    "name": "level",
                    "type": "uint32"
                },
                {
                    "name": "readyTime",
                    "type": "uint32"
                },
                {
                    "name": "winCount",
                    "type": "uint16"
                },
                {
                    "name": "lossCount",
                    "type": "uint16"
                }
            ],
            "payable": false,
            "stateMutability": "view",
            "type": "function"
        },
        {
            "constant": true,
            "inputs": [
                {
                    "name": "",
                    "type": "uint256"
                }
            ],
            "name": "zombieToOwner",
            "outputs": [
                {
                    "name": "",
                    "type": "address"
                }
            ],
            "payable": false,
            "stateMutability": "view",
            "type": "function"
        },
        {
            "constant": false,
            "inputs": [
                {
                    "name": "_name",
                    "type": "string"
                }
            ],
            "name": "createRandomZombie",
            "outputs": [],
            "payable": false,
            "stateMutability": "nonpayable",
            "type": "function"
        },
        {
            "constant": true,
            "inputs": [],
            "name": "owner",
            "outputs": [
                {
                    "name": "",
                    "type": "address"
                }
            ],
            "payable": false,
            "stateMutability": "view",
            "type": "function"
        },
        {
            "constant": false,
            "inputs": [
                {
                    "name": "newOwner",
                    "type": "address"
                }
            ],
            "name": "transferOwnership",
            "outputs": [],
            "payable": false,
            "stateMutability": "nonpayable",
            "type": "function"
        },
        {
            "anonymous": false,
            "inputs": [
                {
                    "indexed": false,
                    "name": "zombieId",
                    "type": "uint256"
                },
                {
                    "indexed": false,
                    "name": "name",
                    "type": "string"
                },
                {
                    "indexed": false,
                    "name": "dna",
                    "type": "uint256"
                }
            ],
            "name": "NewZombie",
            "type": "event"
        },
        {
            "anonymous": false,
            "inputs": [
                {
                    "indexed": true,
                    "name": "previousOwner",
                    "type": "address"
                },
                {
                    "indexed": true,
                    "name": "newOwner",
                    "type": "address"
                }
            ],
            "name": "OwnershipTransferred",
            "type": "event"
        }
    ],
    "bytecode": "60806040526010600155662386f26fc100006002556201518060035560008054600160a060020a031916331790556107438061003c6000396000f30060806040526004361061006c5763ffffffff7c01000000000000000000000000000000000000000000000000000000006000350416632052465e8114610071578063528b7b8f146101355780637bff0a01146101695780638da5cb5b146101c4578063f2fde38b146101d9575b600080fd5b34801561007d57600080fd5b506100896004356101fa565b60408051602080820188905263ffffffff80881693830193909352918516606082015261ffff8085166080830152831660a082015260c080825288519082015287519091829160e08301918a019080838360005b838110156100f55781810151838201526020016100dd565b50505050905090810190601f1680156101225780820380516001836020036101000a031916815260200191505b5097505050505050505060405180910390f35b34801561014157600080fd5b5061014d6004356102eb565b60408051600160a060020a039092168252519081900360200190f35b34801561017557600080fd5b506040805160206004803580820135601f81018490048402850184019095528484526101c29436949293602493928401919081908401838280828437509497506103069650505050505050565b005b3480156101d057600080fd5b5061014d61033f565b3480156101e557600080fd5b506101c2600160a060020a036004351661034e565b600480548290811061020857fe5b60009182526020918290206003919091020180546040805160026001841615610100026000190190931692909204601f8101859004850283018501909152808252919350918391908301828280156102a15780601f10610276576101008083540402835291602001916102a1565b820191906000526020600020905b81548152906001019060200180831161028457829003601f168201915b505050600184015460029094015492939263ffffffff8082169350640100000000820416915061ffff6801000000000000000082048116916a010000000000000000000090041686565b600560205260009081526040902054600160a060020a031681565b336000908152600660205260408120541561032057600080fd5b610329826103e2565b905060648106900361033b828261045d565b5050565b600054600160a060020a031681565b600054600160a060020a0316331461036557600080fd5b600160a060020a038116151561037a57600080fd5b60008054604051600160a060020a03808516939216917f8be0079c531659141344cd1fd0a4f28419497f9722a3daafe3b4186f6b6457e091a36000805473ffffffffffffffffffffffffffffffffffffffff1916600160a060020a0392909216919091179055565b600080826040518082805190602001908083835b602083106104155780518252601f1990920191602091820191016103f6565b6001836020036101000a03801982511681845116808217855250505050505090500191505060405180910390206001900490506002548181151561045557fe5b069392505050565b6040805160c0810182528381526020808201849052600192820183905260038054420163ffffffff16606084015260006080840181905260a08401819052600480548087018083559183528551805193979692959294919091027f8a35acfbc15ff81a39ae7d344fd709f28e8600b4aa8c65c6b64bfe7fe36bd19b01926104e7928492019061067c565b50602082810151600183810191909155604080850151600290940180546060808801516080808a015160a0909a015163ffffffff1990941663ffffffff998a161767ffffffff00000000191664010000000099909216989098021769ffff000000000000000019166801000000000000000061ffff998a1602176bffff0000000000000000000019166a010000000000000000000098909216979097021790559590940360008181526005835286812080543373ffffffffffffffffffffffffffffffffffffffff1990911681179091558152600683528681208054909601909555855181815295860188905285820184815289519487019490945288519096507f88f026aacbbecc90c18411df4b1185fd8d9be2470f1962f192bf84a27d0704b79587958a958a959294909392850192908701918190849084905b8381101561063b578181015183820152602001610623565b50505050905090810190601f1680156106685780820380516001836020036101000a031916815260200191505b5094505050505060405180910390a1505050565b828054600181600116156101000203166002900490600052602060002090601f016020900481019282601f106106bd57805160ff19168380011785556106ea565b828001600101855582156106ea579182015b828111156106ea5782518255916020019190600101906106cf565b506106f69291506106fa565b5090565b61071491905b808211156106f65760008155600101610700565b905600a165627a7a723058203c7570626e0a0f5a52258f249520ecb9c68ef07ecaaf709acd744452ced518140029",
    "sourcePath": "d:/program data/zombies/zombiefactory.sol",
    "compiler": {
        "name": "solc",
        "version": "0.4.24+commit.e67f0147"
    },
    "functionHashes": {
        "createRandomZombie(string)": "7bff0a01",
        "owner()": "8da5cb5b",
        "transferOwnership(address)": "f2fde38b",
        "zombieToOwner(uint256)": "528b7b8f",
        "zombies(uint256)": "2052465e"
    },
    "gasEstimates": {
        "creation": {
            "codeDepositCost": "371800",
            "executionCost": "80697",
            "totalCost": "452497"
        },
        "external": {
            "createRandomZombie(string)": "infinite",
            "owner()": "603",
            "transferOwnership(address)": "22819",
            "zombieToOwner(uint256)": "631",
            "zombies(uint256)": "infinite"
        },
        "internal": {
            "_createZombie(string memory,uint256)": "infinite",
            "_generateRandomDna(string memory)": "infinite"
        }
    }
}